:020000040800F2
:10000000C888002079020008750C0008CF06000897
:10001000710C0008DD0500084F1500080000000005
:100020000000000000000000000000009B1000081D
:10003000E105000800000000050D0008910200081D
:10004000930200089302000893020008E50E0008DE
:10005000930200089302000893020008930200082C
:10006000930200089302000893020008930200081C
:10007000930200089302000893020008930200080C
:100080009302000893020008930200080000000099
:1000900000000000000000000000000093020008C3
:1000A00093020008930200089302000893020008DC
:1000B00093020008C9110008930200089302000887
:1000C00093020008930200089302000893020008BC
:1000D000930200083113000893020008000000009A
:1000E00093020008710E000893020008000000004F
:1000F0000000000000000000000000009302000863
:100100000000000093020008930200089302000818
:1001100000000000000000000000000000000000DF
:10012000930200089302000893020008930200085B
:100130009302000800000000000000000000000022
:100140000000000000000000000000009302000812
:10015000930200089302000893020008930200082B
:100160009302000893020008000000000000000055
:10017000000000000000000000000000000000007F
:1001800000000000930200080000000000000000D2
:10019000930200089302000800F002F800F05CF8F7
:1001A0000AA090E8000C82448344AAF10107DA45D2
:1001B00001D100F051F8AFF2090EBAE80F0013F0C8
:1001C000010F18BFFB1A43F0010318472C860200E9
:1001D0004C8602000A444FF0000C10F8013B13F06B
:1001E000070408BF10F8014B1D1108BF10F8015B90
:1001F000641E05D010F8016B641E01F8016BF9D183
:1002000013F0080F1EBF10F8014BAD1C0C1B09D1D9
:100210006D1E58BF01F801CBFAD505E014F8016B4B
:1002200001F8016B6D1EF9D59142D6D370470000DD
:100230000023002400250026103A28BF78C1FBD8EF
:10024000520728BF30C148BF0B6070471FB509F087
:10025000C2FF1FBD10B510BD00F07AF91146FFF7BF
:10026000F5FF09F0DBFD00F0ACF903B4FFF7F2FF96
:1002700003BC01F06EF900000948804709480047B7
:10028000FEE7FEE7FEE7FEE7FEE7FEE7FEE7FEE746
:10029000FEE7FEE704480549054A064B70470000A3
:1002A0006111000899010008C87E0020C88800205C
:1002B000C8800020C8800020704700000FB40449A7
:1002C00010B503AA029800F015F910BC5DF814FBF4
:1002D0001400002040EA0103024630B59B0710D10C
:1002E0004FF0013400E008C208C91D1B9D4315EA08
:1002F000C41FF8D013F0FF0102F8011B0DD01B0A38
:10030000F8E711F8013B002B02F8013B05D011F88A
:10031000013B002B02F8013BF3D130BD10B5431C6B
:1003200002E010F8011B71B18107FAD14FF00132E0
:1003300002C88C1A8C4314EAC211F9D0C01A0A06FA
:1003400003D0C01E10BDC01A10BD0A0401D0801E0B
:1003500010BD0902FCD0401E10BD032A40F23080BF
:1003600010F0030C00F0158011F8013BBCF1020FF6
:10037000624498BF11F801CB00F8013B38BF11F877
:10038000013BA2F1040298BF00F801CB38BF00F88E
:10039000013B11F0030300F02580083AC0F008800B
:1003A00051F8043B083A51F804CBA0E80810F5E7EF
:1003B000121D5CBF51F8043B40F8043BAFF30080D2
:1003C000D20724BF11F8013B11F801CB48BF11F847
:1003D000012B24BF00F8013B00F801CB48BF00F817
:1003E000012B704710B5203AC0F00B80B1E81850CF
:1003F000203AA0E81850B1E81850A0E81850BFF40F
:10040000F5AF5FEA027C24BFB1E81850A0E81850AD
:1004100044BF18C918C0BDE810405FEA827C24BF01
:1004200051F8043B40F8043B08BF7047D20728BF8F
:1004300031F8023B48BF11F8012B28BF20F8023BDE
:1004400048BF00F8012B704702F0FF0343EA032284
:1004500042EA024200F002B84FF000020429C0F064
:10046000128010F0030C00F01B80CCF1040CBCF1E6
:10047000020F18BF00F8012BA8BF20F8022BA1EB38
:100480000C0100F00DB85FEAC17C24BF00F8012B1D
:1004900000F8012B48BF00F8012B70474FF0000215
:1004A00000B5134694469646203922BFA0E80C506A
:1004B000A0E80C50B1F12001BFF4F7AF090728BF45
:1004C000A0E80C5048BF0CC05DF804EB890028BFC1
:1004D00040F8042B08BF704748BF20F8022B11F0EA
:1004E000804F18BF00F8012B704770477047704766
:1004F00070470000074B70B50D467B4400F011F8C3
:100500000446284600F020F810B14FF0FF3070BDCF
:10051000204670BDBF14000001694A1C02610878C2
:10052000704700B58FB0CDE9013100210591054933
:100530007944CDE903101146684600F02EF80FB05B
:1005400000BD0000E5FFFFFF007B00F0800070476A
:10055000754600F03FF8AE4605006946534620F068
:100560000700854618B020B5FFF794FEBDE820408F
:100570004FF000064FF000074FF000084FF0000B5F
:1005800021F00701AC46ACE8C009ACE8C009ACE812
:10059000C009ACE8C0098D4670472DE9F041064618
:1005A0000024D6E90170F5688046304603E04146F4
:1005B000B847641C3046A8470028F8D12046BDE85B
:1005C000F08110B50446AFF300802046BDE810402E
:1005D000FFF74BBE00487047687E002000BFFEE773
:1005E000704700000149086070470000143C01405A
:1005F000F0B50A4600210023002400BF3DE001259C
:1006000005FA01F3156805EA03049C4234D1056834
:100610004F000326BE40B543056015794E00B54036
:100620000668354305601579012D02D01579022D34
:1006300016D185684F000326BE40B54385605579C5
:100640004E00B540866835438560456801268E407A
:10065000B5434560456896798E40B6B235434560EE
:10066000C5684F000326BE40B543C560D5794E002E
:10067000B540C6683543C560491C1029BFD3F0BDDD
:10068000F0B5002300244D07ED0E02FA05F3CE105D
:1006900000F1200555F826504E07F70E0F26BE40F4
:1006A000B543CF1000F1200646F82750CE1000F1D8
:1006B000200555F8265045EA0304CE1000F1200528
:1006C00045F82640F0BD418370470183704700BF65
:1006D000FEE700001CB50121084600F015FB0E20C6
:1006E000009000208DF8040003208DF80500012003
:1006F0008DF8070069460648FFF77AFF0120009051
:1007000002208DF8070069460148FFF771FF1CBD04
:100710000000024010B5044614B1012024490870BD
:100720002348007868B32348006860B12148001F5F
:10073000006840B11F480838006820B11D480C38D7
:10074000006801281DD10A2001F010F80020184986
:1007500008701848006808B9012010BD1548001F2E
:10076000006808B90220F8E712480838006808B99C
:100770000320F2E70F480C380068012816D1042046
:10078000EBE70C480068012810D10A48001F0068F8
:1007900001280BD1074808380068012806D1054810
:1007A0000C38006810B90120014908700020D4E716
:1007B0001A0000200C02404270B50646EF231A468C
:1007C0000021084600F078F900240AE0002504E042
:1007D000304600F0A1F9681C85B2F02DF8DB601CF2
:1007E00084B2F02CF2DB70BD2DE9F84F07460D46C0
:1007F00090469946DDF828B0A8EB0700401C1FFA88
:1008000080FAA9EB0500401C80B20090002412E0A1
:10081000281981B2384600F033F9002607E004FBBE
:100820000A613BF8110000F077F9701C86B256455A
:10083000F5DB601C84B200988442E9DBBDE8F88FE8
:100840001CB50121032000F05FFAD02000900120A8
:100850008DF8040000208DF8060003208DF80500B7
:1008600001208DF8070069468248FFF7C1FE4FF46A
:100870000040009001208DF8040000208DF8060053
:1008800003208DF8050001208DF8070069467A489D
:10089000FFF7AEFE00F040FB4FF400417648FFF753
:1008A00012FF40217348FFF70EFF142000F05EFF97
:1008B00040217048FFF709FF142000F057FF802106
:1008C0006C48FFF702FF362000F062F9002000F0CC
:1008D00043F9362000F05CF9032030B1012808D03C
:1008E00002280AD0032810D10BE0002000F034F9D0
:1008F0000BE0702000F030F907E0902000F02CF9B8
:1009000003E0A02000F028F900BF00BF3A2000F06B
:100910003FF9052000F020F9B22000F039F90C2051
:1009200000F01AF90C2000F017F9002000F014F97B
:10093000332000F011F9332000F00EF9B72000F059
:1009400027F9352000F008F9BB2000F021F9192023
:1009500000F002F9C02000F01BF92C2000F0FCF898
:10096000C22000F015F9012000F0F6F8C32000F0D5
:100970000FF9122000F0F0F8C42000F009F920204F
:1009800000F0EAF8C62000F003F90F2000F0E4F8C8
:10099000D02000F0FDF8A42000F0DEF8A12000F047
:1009A000DBF8E02000F0F4F8D02000F0D5F80420C7
:1009B00000F0D2F80D2000F0CFF8112000F0CCF8B4
:1009C000132000F0C9F82B2000F0C6F83F2000F0FB
:1009D000C3F8542000F0C0F84C2000F0BDF81820F7
:1009E00000F0BAF80D2000F0B7F80B2000F0B4F8D2
:1009F0001F2000F0B1F8232000F0AEF8E12000F055
:100A0000C7F8D02000F0A8F8042000F0A5F80C20CA
:100A100000F0A2F8112000F09FF8132000F09CF8DD
:100A20002C2000F099F83F2000F096F8442000F0C8
:100A300093F8512000F090F82F2000F08DF81F203F
:100A400000F08AF81F2000F087F8202000F084F8DA
:100A5000232000F081F8212000F09AF8112000F006
:100A600097F8292000F094F804480088FFF7A4FEC6
:100A70001CBD000000040240000002401C000020D9
:100A800070B504460D4604F1500084B22A2000F0EF
:100A90007FF8201200F060F8E0B200F05DF82B2043
:100AA00000F076F8281200F057F8E8B200F054F899
:100AB0002C2000F06DF870BD2DE9F04104460E4683
:100AC00015461F4604F1500084B205F1500085B26E
:100AD0002A2000F05DF8201200F03EF8E0B200F0AD
:100AE0003BF8281200F038F8E8B200F035F82B2077
:100AF00000F04EF8301200F02FF8F0B200F02CF8B1
:100B0000381200F029F8F8B200F026F82C2000F096
:100B10003FF8BDE8F081000010B504464FF40041F5
:100B20000A48FFF7D0FD10210948FFF7CEFDC4F3B6
:100B30000721084800F0A0FAE1B2064800F09CFA4C
:100B40004FF400410148FFF7C0FD10BD0000024016
:100B500000040240003C004010B504464FF4004140
:100B60000848FFF7B0FD10210748FFF7AEFD21460A
:100B7000064800F081FA4FF400410248FFF7A5FD56
:100B800010BD00000000024000040240003C004094
:100B900010B504464FF400410848FFF794FD1021BA
:100BA0000748FFF790FD2146064800F065FA4FF42C
:100BB00000410248FFF789FD10BD0000000002401F
:100BC00000040240003C00401CB50121062000F05A
:100BD0009BF80220009001208DF8040000208DF881
:100BE000060003208DF8050001208DF807006946F6
:100BF0000F48FFF7FDFC4FF40050009001208DF8E6
:100C0000040000208DF8060003208DF80500012067
:100C10008DF8070069460748FFF7EAFC02210448FF
:100C2000FFF753FD4FF400510248FFF74EFD1CBD86
:100C3000000402400008024010B54FF4A06000F02C
:100C400057F8B42000F074FD4FF4E13009F068FA71
:100C5000FFF7BAFFFFF7F4FDFFF73CFD472140F235
:100C6000E73000F0CBFA06F06FFB07F021FE10BD75
:100C700000BFFEE77047000070B5002100230F227F
:100C8000C4781CB3174C246804F4E064C4F5E06431
:100C9000C4F30721C1F10404E3B20A4144789C4043
:100CA000E1B28478144021430C07210E0E4C0578E4
:100CB0006155047804F01F050124AC4005786D11DE
:100CC000AD0005F1E025C5F8004109E0047804F025
:100CD0001F050124AC40054D0678761145F82640E5
:100CE00070BD00000CED00E000E400E080E100E0F9
:100CF00002490143024A1160704700000000FA05F2
:100D00000CED00E07047000029B1064A126802436A
:100D1000044B1A6004E0034A12688243014B1A60D4
:100D2000704700003038024029B1064A1268024379
:100D3000044B1A6004E0034A12688243014B1A60B4
:100D4000704700004038024029B1064A1268024349
:100D5000044B1A6004E0034A12688243014B1A6094
:100D6000704700002038024029B1064A1268024349
:100D7000044B1A6004E0034A12688243014B1A6074
:100D80007047000044380240F0B5002100220024E2
:100D9000022500260223324F3F6807F00C0121B1E3
:100DA000042905D0082937D105E02E4F076036E029
:100DB0002D4F076033E02A4F3F1F3F68C7F380562F
:100DC000274F3F1F3F6807F03F036EB1264FB7FB29
:100DD000F3F7DFF88CC0ACF1040CDCF800C0CCF306
:100DE000881C07FB0CF40CE01E4FB7FBF3F7DFF891
:100DF00070C0ACF1040CDCF800C0CCF3881C07FB1D
:100E00000CF4174F3F1F3F68C7F301477F1C7D005D
:100E1000B4FBF5F7076002E0124F076000BF00BFA8
:100E20000F4F3F6807F0F0010909104F7A5C07681F
:100E3000D74047600A4F3F6807F4E051890A0B4FDB
:100E40007A5C4768D7408760054F3F6807F4604188
:100E5000490B064F7A5C4768D740C760F0BD000079
:100E6000083802400024F40040787D010000002092
:100E700010B54FF4807000F021F8012805D1000270
:100E800000F00EF803A0FFF719FA4FF40030FFF757
:100E9000A9FB10BD414C41524D2041210D0A0000DB
:100EA00081B241F08001044A126802F0800262EAD5
:100EB0000101014A116070470C28004010B501463D
:100EC00000200022054B1B68054C03EA040202EADD
:100ED00001030BB1012000E0002010BD0C280040F0
:100EE0007F7F010010B54FF48060FFF7E7FF012816
:100EF0000AD18002FFF7D4FF0648006808B9012034
:100F000000E00020034908604FF48000FFF76AFB0F
:100F100010BD0000B402414200B587B0012102209B
:100F2000FFF7F2FE0121C803FFF7FEFE282005901F
:100F300002208DF8180000208DF81A0003208DF88B
:100F4000190001208DF81B0005A91F48FFF750FB71
:100F5000062203211C48FFF793FB062205211A48AD
:100F6000FFF78EFB0121C803FFF7EEFE00214FF4CF
:100F70000040FFF7E9FE0020ADF800004FF482705A
:100F8000ADF802000020ADF804000220ADF8060024
:100F90000120ADF808004002ADF80A000020ADF8CD
:100FA0000C00ADF80E000720ADF8100069460748A8
:100FB00000F044F80121054800F026F8FF2000F079
:100FC00007F807B000BD000000040240003C0040EC
:100FD00010B5044600BF02210A4800F021F800289D
:100FE000F9D02146074800F027F800BF0121054845
:100FF00000F016F80028F9D0024800F01AF8C0B244
:1010000010BD0000003C004021B1028842F04002C7
:10101000028004E002884FF6BF731A4002807047D6
:101020000246002013890B400BB1012000E0002094
:1010300070470146888970478181704710B500224A
:10104000028802F441520B884C8823438C88234346
:10105000CC8823430C8923434C8923438C89234325
:10106000CC8923431A430280838B4FF2FF742340C1
:1010700083830B8A038210BD024600BF108900F0F3
:1010800002000028FAD0918100BF108900F0010011
:101090000028FAD09089C0B2704770472248006893
:1010A00040F08050204908602048006840F44040EB
:1010B0001E4908601C48383800681B4938390860E8
:1010C0000846006808600846006840F480500860E0
:1010D0001748091F0860081F006840F08070091F4A
:1010E000086000BF10484038006800F00070002819
:1010F000F8D040F202700F4908600B483838006899
:1011000020F003000849383908600846006840F0BC
:101110000200086000BF04483838006800F00C0086
:101120000828F8D1704700004038024000700040A5
:10113000195F0008003C0240042808D14FF0E0216C
:10114000096941F004014FF0E022116107E04FF01E
:10115000E021096921F004014FF0E022116170479C
:1011600010B51548006840F4700013490860134832
:10117000006840F001001149086000200F49083163
:1011800008600E4800680E4908400C4908600D4888
:10119000091D0860081F006820F48020091F0860EE
:1011A000002006490C310860FFF778FF4FF000601F
:1011B00001498039086010BD88ED00E00038024028
:1011C000FFFFF6FE1030002410B50121094800F0A1
:1011D00052F8012809D108F0E7FA0748006808B971
:1011E000012000E00020044908600121014800F0CE
:1011F00033F810BD00040040B40241427FB50546FB
:101200000C4601210220FFF78FFD0295ADF8044046
:101210000020ADF80600ADF80C0001A90D4800F063
:1012200045F8012211460B4800F036F80121094823
:1012300000F015F81D208DF8000001208DF8010048
:1012400003208DF8020001208DF803006846FFF7A7
:1012500013FD7FBD00040040CA430282704721B1E4
:10126000028842F00102028004E002884FF6FE7319
:101270001A400280704730B5024600200023002447
:10128000158A05EA0103958905EA010413B10CB139
:10129000012000E0002030BD1AB183890B43838117
:1012A00002E083898B43838170470000002202881B
:1012B000184B98420ED0184B98420BD0B0F1804F8B
:1012C00008D0164B984205D0154B984202D0154BCA
:1012D000984204D14FF68F731A404B881A43124B31
:1012E000984207D0114B984204D04FF6FF431A4062
:1012F0000B891A4302804B68C3620B880385054B38
:10130000984202D0044B984201D18B7A0386012384
:101310008382704700000140000401400004004047
:1013200000080040000C0040001000400014004085
:1013300010B540F225511D4800F04AF810B31B4883
:1013400000F000F9C4B21A48008800F40040C8B99F
:101350001748008800F4804060B10A2C03D00020B8
:101360001349088020E01248008840F400401049EA
:10137000088019E00D2C06D10D48008840F480400B
:101380000B49088010E00A480088C0F30D000949A5
:101390000C5407480088401C05490880084600880E
:1013A000C72801DD0020088010BD000000100140AA
:1013B00018000020940C002021B1828942F40052D0
:1013C000828104E082894DF6FF731A408281704762
:1013D00070B50246002400230025002040F66A165E
:1013E000B14200D100BFC1F3421501F01F03012635
:1013F00006FA03F3012D02D19689334006E0022D4F
:1014000002D1168A334001E0968A33400C1201263D
:1014100006FA04F41688344013B10CB1012000E040
:10142000002070BDF0B503460024002600250020F2
:1014300040F66A17B94200D100BF1846C1F3421402
:1014400001F01F06012707FA06F5012C01D10C3027
:1014500004E0022C01D1103000E014301AB107680A
:101460002F43076002E00768AF430760F0BD00004C
:101470002DE9FF4705460E460024A14600BFA046C1
:10148000B08900B100BF2C8A24F44054F088044392
:101490002C82AC8941F20C608443B08831890843C6
:1014A000718908430443AC81AC8A24F44074B08948
:1014B0000443AC826846FFF767FC2048854202D0AF
:1014C0001F48854202D1DDF80C9001E0DDF808905C
:1014D000A88900F4004040B109EBC90000EB0910F5
:1014E00031684900B0FBF1F707E009EBC90000EBF8
:1014F000091031688900B0FBF1F76420B7FBF0F008
:1015000004012009642101FB1078A88900F400403F
:1015100040B1322000EBC800B0FBF1F000F0070052
:10152000044308E0322000EB08106421B0FBF1F026
:1015300000F00F0004432C81BDE8FF87001001403C
:101540000014014001468888C0F30800704700BFBE
:10155000FEE700BF7047000010B58AB0044694F85B
:101560002000C0F3400020B994F8200000F00100F2
:1015700070B194F82000C0F34000F0B994F8200056
:1015800000F00100C8B194F82000C0F38000A0B1C1
:101590002422214601A8FEF725FF2146194806F01E
:1015A00084F8204606F0ECF80120174908700498EA
:1015B00010B101A8049988471FE0E08B404200B2B7
:1015C000608394F8200000F00100B0B194F820107E
:1015D000C1F3800119B9A18B494209B2618310346A
:1015E000217C8908C943227C61F38202227420682D
:1015F000616821606060103C00BF034800780AB059
:1016000010BD0000A4100020400C00202DE9F04186
:1016100007462F4805F06EFF044608E0206A20F0D8
:101620000800206221462A4805F069FF0446002C84
:10163000F4D12848006808F099F80646244805F0D7
:1016400059FF04463CE000202349087094F820002C
:10165000C0F3C00038BB206A20F0080008302062C8
:10166000608B304400B26083B4F91A0000281ADBA2
:10167000B4F91A00218B884202DD208B00B260830E
:101680002046A16888470546606818B129B2D4E9A8
:1016900000029047B4F91A00218B884202DB2046F1
:1016A000FFF75AFF00BF0C48007820B1084805F04A
:1016B00021FF044604E02146054805F020FF0446CA
:1016C000002CC0D108F060F802490860BDE8F08144
:1016D000A41000203C0C0020400C002030B5034634
:1016E000022B04D10E48405C5043001230BD032B46
:1016F00004D10C48405C50430012F7E7042B04D19E
:101700000948405C50430012F0E7C1EBC105581E88
:10171000B5FBF0F0C4B20548005D5043000AE5E7B0
:101720001AA200081CA200081FA2000823A2000899
:1017300010B504466FF00400FFF7FEFCE11704EB60
:101740005171C1F3C701074A11701046007800EBD0
:101750004001C1EBC0104FF6FF7101EAC000024921
:10176000088010BD100000201200002070B5044653
:101770004FF4077094FBF0F0C6B24FF4077094FB7F
:10178000F0F100FB114085B205E04FF4077000F066
:1017900009F8701EC6B2002EF7D115B1284600F028
:1017A00001F870BD0146114A12884A434FF0E02308
:1017B0005A6100229A611A46126942F001021A61C6
:1017C00000BF4FF0E022106900F001021AB100F4EE
:1017D0008032002AF5D04FF0E022126922F0010297
:1017E0004FF0E0231A6100229A6170471200002036
:1017F000F8B506460C4615460095E788BBB2A788A3
:10180000BAB26788B9B22788B8B2FEF7EDFF3046A2
:1018100000F016FDF8BD704770B504460D46002671
:10182000207800F0010068B92068B5EB500F09D8A6
:101830002946204600F020F8206820F00100401CD6
:101840002060261D304670BD10B50146002011B93C
:10185000084A10680CE00A1D0B6802EB5300031DD8
:10186000044C246804F58044A34200D3002000BF48
:1018700010BD0000500C002030B501F0030212B181
:1018800021F00301091D0A1D0368B2EB530F01D1BA
:10189000026851080268B1EB520F0ED0031D5A18AE
:1018A000146824F0010414600468C1EB5404241F7C
:1018B000156864F35F05156000BF026861F35F029D
:1018C000026030BD2DE9F84F04468846914694F8F1
:1018D000580000F0010008B1BDE8F88FE568002667
:1018E0004FF0010A4FF0010B00BF8DB994F858007A
:1018F000C0F3001000B956B9BBF1000F00D1EBE7FF
:101900002046C04705464FF0000AD34600E0E3E713
:1019100016B92E4606B9DFE7BAF1000F06D0294600
:101920002046C8470546B54200D1D5E74FF0010A29
:1019300005B9DAE7286806F04BFD00B900E0D4E706
:1019400000BFE068A84200D1C6E7E068A8B1E1683E
:10195000086800221021C3699847E16800220868DE
:101960000D2104F0D3FA00900098012800D0B3E7CD
:10197000E168086806F0B2FD00BFE560E16808684C
:1019800000220F21C3699847E168002208680C21F2
:1019900004F0BCFA0746012F00D09DE7E168086813
:1019A00008F074FAE168086806F098FDA06910B1C3
:1019B0002046A169884700BF8EE7000000BF054AA6
:1019C000128802F04002002AF9D0C2B2014B9A807C
:1019D00070470000001001402DE9FC4780460E468C
:1019E00016B90020BDE8FC87D8F80C406069B04209
:1019F00001D1A069F6E70025AEE005EB8501A068FE
:101A000050F82100301A019005EB8501A06800EB29
:101A1000810080880199884200D29BE0002705EB75
:101A20008501A06800EB8100807C00F0030040B9D4
:101A300005EB8501A06800EB8100C088019947187B
:101A400084E005EB8501A06800EB8100807C00F05C
:101A5000030001280FD105EB8502A16801EB82018B
:101A6000C86805EB8502A16801EB8201C988019A6B
:101A7000825C8F186AE005EB8501A06800EB8100AD
:101A8000807C00F00300022827D13948009005EB44
:101A90008503A06800EB8300028A05EB8503A0683C
:101AA00000EB83000223816801A808F08DF98146CC
:101AB000B9F1000F10D005EB8502A16801EB82019E
:101AC0008968A9EB0100400805EB8502A16801EBDC
:101AD0008201C9880F1800BF38E005EB8501A068B6
:101AE00000EB8100807C00F0030003282ED1204809
:101AF000009005EB8503A06800EB8300028A05EBEC
:101B00008503A06800EB83000223816801A808F028
:101B10005BF98146B9F1000F17D005EB8503A26888
:101B200002EB83029268A9EB0200400805EB8503F3
:101B3000A26802EB8302D16805EB8503A26802EB81
:101B40008302D2880B5CD71800BF00BF6661A76113
:101B5000384647E7681C85B2608AC0F30900A8428E
:101B60003FF74BAF66610020A06100BF3AE700007D
:101B7000CDA100082DE9FC5F80460D461646D8F839
:101B80000C704FF0000A788AC0F34030002841D131
:101B9000FC68A068C0F30160D8B9D4F8009005EBE8
:101BA000062080B2019027480090A06820F07F4274
:101BB0000223494601A808F007F98346BBF1000F4C
:101BC00006D0ABEB09004008616811F900A000BF26
:101BD0001FE0A068C0F3016001281AD1D4F800907A
:101BE00005EB0620019018480090A06820F07F4285
:101BF0000423494601A808F0E7F88346BBF1000F2B
:101C000006D0ABEB09000009616811F900A000BF24
:101C100000BF13E0F8684368595D43689A5D002986
:101C20000BDD002A09DD531E4C1E90F80DC004FB8D
:101C30000C330468E35C4FFA83FA00BF5046BDE8FA
:101C4000FC9F0000BD1C00089D1C000801460020F0
:101C5000302905DB392903DCA1F13002D0B21CE0C8
:101C6000612902DBA1F12002D1B2A1F14102062AD1
:101C700010D2DFE802F0030507090B0D0A200BE084
:101C80000B2009E00C2007E00D2005E00E2003E00A
:101C90000F2001E0002000BF00BF704730B50246B2
:101CA00014460B4620881D88A84203D020881D8832
:101CB000401B30BD60885D88401BFAE730B50246A6
:101CC00014460B4620781D78A84203D020781D7852
:101CD000401B30BD60785D78401BFAE710B50020EE
:101CE000FEF718FD0446012C13D1154890F8320078
:101CF0000A30C1B2124880F8321090F83200FA2847
:101D000003DB00210E4880F832100D4806F0BCFCC1
:101D100014E0022C12D10A4890F833000A38C1B2FC
:101D2000074880F8331090F833000A2803DCFF21BD
:101D3000034880F83310024806F0A6FC10BD0000EE
:101D40002C7E002010B52421064805F0F2FB07F098
:101D50001BFD05490860002303221E21034807F0EC
:101D600047FB10BDA41000203C0C00200D160008FD
:101D70000A6802604A68426070470A6802604A68FE
:101D8000426070470A6802604A68426070470146D4
:101D9000C8884A88801A401C00B270470146C8882B
:101DA0004A88801A401C00B2704710B50146B1F94C
:101DB0000420B1F90030D21A521CB1F90630B1F941
:101DC00002401B1B5B1C02FB03F010BD0146888810
:101DD0000A88801A401C00B27047014688880A8829
:101DE000801A401C00B27047014688880A88801A11
:101DF000401C00B27047014688880A88801A401C3F
:101E000000B27047014688880A88801A401C00B2D8
:101E1000704730B50346B1F90040B2F90050AC420A
:101E200002DDB1F9004001E0B2F900401C80B1F9D7
:101E30000240B2F90250AC4202DDB1F9024001E0C9
:101E4000B2F902405C80B1F90440B2F90450AC42EE
:101E500002DAB1F9044001E0B2F904409C80B1F922
:101E60000640B2F90650AC4202DAB1F9064001E090
:101E7000B2F90640DC800120B3F90040B3F9045008
:101E8000AC4205DCB3F90240B3F90650AC4200DDC8
:101E9000002030BD10B502460020B2F90030B1F983
:101EA0000040A34212DBB2F90230B1F90240A34272
:101EB0000CDBB2F90430B1F90440A34206DCB2F9FC
:101EC0000630B1F90640A34200DC012010BD0246F5
:101ED000B2F90000B1F90430984213DCB2F9040001
:101EE000B1F9003098420DDBB2F90200B1F90630C9
:101EF000984207DCB2F90600B1F90230984201DBE2
:101F0000012070470020FCE710B5B1F90030B2F9AC
:101F10000040A34202DAB1F9003001E0B2F900302A
:101F20000380B1F90230B2F90240A34202DAB1F9FA
:101F3000023001E0B2F902304380B1F90430B2F965
:101F40000440A34202DDB1F9043001E0B2F90430EB
:101F50008380B1F90630B2F90640A34202DDB1F93F
:101F6000063001E0B2F90630C38010BD10B5029C06
:101F7000018042808380C48010BD42880A44521E82
:101F800012B2C28070470146B1F90200B1F90020D7
:101F9000904201DC012070470020FCE70280002312
:101FA0004380C2F101031BB20B8070474288521C70
:101FB00012B24280B1F90020002A07DC0B88428867
:101FC0005200521C1A4412B20A800CE00288521EBF
:101FD00012B2028042880388D21A5200521C0B8827
:101FE0001A4412B20A80704718B50346D408BDF8E7
:101FF000000064F3040000908C08BDF8000064F356
:102000004A100090DC08BDF8000064F3CF20009077
:10201000BDF80040204618BD07B581B0BDF80800E6
:10202000C00AC2F1FF014843BDF80410C90A01FB10
:102030000200010ABDF8000061F3CF200090BDF856
:102040000800C0F34510C2F1FF014843BDF8041079
:10205000C1F3451101FB0200010ABDF8000061F364
:102060004A100090BDF8080000F01F00C2F1FF0107
:102070004843BDF8041001F01F0101FB0200010AF2
:10208000BDF8000061F304000090BDF800100846A0
:1020900004B000BD07B581B0BDF80800C00AC2F1A8
:1020A000FF014843BDF80410C90A01FB0200010A00
:1020B000BDF8000061F3CF200090BDF80800C0F328
:1020C0004510C2F1FF014843BDF80410C1F34511AA
:1020D00001FB0200010ABDF8000061F34A10009004
:1020E000BDF8080000F01F00C2F1FF014843BDF831
:1020F000041001F01F0101FB0200010ABDF80000FD
:1021000061F304000090BDF80010084604B000BD63
:102110002DE9F04104460F4615461E461C21204677
:10212000FEF7BCF9276065602068A060E660BDE846
:10213000F081000038B5044620212046FEF7AEF9B4
:102140000020E060F0202080608000206060A068B7
:1021500020F00200A060074800680090BDF8000071
:10216000A083A06820F00100401CA06000206061F6
:1021700038BD0000E8C5000870B505462C4805F0DC
:10218000E3F9044624B90CB900BFFEE7002070BD96
:10219000202229462046FEF725F9202104F59E70CD
:1021A000FEF77CF94FF4807104F13C00FEF754F91E
:1021B000442104F1240005F0BCF91E48006808B968
:1021C0001C4804601B48066804600020C4F85C01D9
:1021D0000021084605F0C8FE20630021084605F0EE
:1021E000C3FE60630021084605F0BEFEA0631249ED
:1021F000606B06F01EFB1049A06B06F01AFB206B0B
:1022000006F06CF90B480660234603221E210B489A
:1022100007F0EEF82062206A08B900BFFEE7206AE6
:1022200008B90020B3E7206A07F054FA2046AEE769
:1022300074100020300C0020980D00206523000849
:102240004168896921F0010142689161704700B5D8
:10225000014611B900F00CF8014609B9002000BD93
:10226000087A00F00100FAE701464868704700006C
:102270000148006870470000300C002000B501469E
:1022800011B9FFF7F5FF014609B9F02000BD087A42
:10229000C0F3400010B9B1F90000F7E7B1F902004E
:1022A000F4E710B5044614B9FFF7E2FF04460CB991
:1022B000002010BDA06BFCE710B5044614B9FFF771
:1022C000D7FF04460CB9002010BD606BFCE700008E
:1022D00010B504461CB9044805F00CF910BD2146A0
:1022E000014805F00CF9F9E77410002010B5044618
:1022F00014B9FFF7BDFF04460CB9002010BD206BD8
:10230000FCE700B5014611B9FFF7B2FF014609B974
:10231000F02000BD087AC0F3400010B9B1F9020006
:10232000F7E7B1F90000F4E701464868006820B11A
:102330004868406808B1012070470020FCE700B5FC
:1023400002461088518810FB01F31046FFF7ECFF9E
:1023500028B15068C068984201D1012000BD00201A
:10236000FCE700002DE9FC5F804607F00DFA0190C4
:102370005249D8F80C00086006F022FC06F0A8FBD1
:102380004E480068B0F85C01C0F3090000287DD019
:102390004A480068FFF7D3FF002865D04748006827
:1023A000FFF762FF054606F02FFD00BFA86900F0A9
:1023B00001000028FAD1D5F808902968A868884259
:1023C00001D1686800E0286800903C480068FFF789
:1023D00055FF064600243EE03848006800F59E7030
:1023E000005DB0BB354800683C3030F934103348EC
:1023F00000683C3000EBC400B0F9020006FB00109E
:1024000047002E4909683C3101EBC400FFF7DEFCB0
:102410004FEA400B294800683C3000EBC400B0F99B
:1024200002A00CE0009AD11909EB07005A46FDF70B
:1024300094FF07EB46070AF101000FFA80FA1F48E4
:1024400000683C3000EBC400B0F906005045E9DA02
:1024500000BF601C84B219480068B0F85C01C0F38A
:102460000900A042B8DC00BF4FF480711348006837
:102470003C30FDF7F1FF20211048006800F59E7008
:10248000FEF70CF800200D49096800E012E0C1F8E1
:102490005C010A480068806960B1019807F066F93C
:1024A00004460648006883690548214602680348D7
:1024B0000068984700F092F8BDE8FC9F38000020C3
:1024C0003400002010B503460BB9002010BD082BC6
:1024D00007DA581E074C54F82000405C5043000AAD
:1024E000F4E7012000EB410050435C0090FBF4F066
:1024F000C0B2EBE7400000202DE9F04104460D4654
:10250000164606F017FB8046FFF7A1FE0746B4EB20
:10251000650F04DBC5F34F040CB1601E84B2B4EB4D
:10252000660F04DBC6F34F040CB1601E84B2002CAE
:1025300001DDE01B84B22046BDE8F0812DE9FF4FAC
:1025400085B0804689461D46102D02DA09B0BDE8E7
:10255000F08FFB2D00DDFF254A46414603A8FFF71B
:1025600058FC074607B9F1E706F0E4FA83465846F7
:10257000FFF77AFE0446BDF80C00218A401A00B22B
:10258000ADF80400BDF80E10608A081A00B2ADF86C
:102590000600BDF81000218A401A00B2ADF808000C
:1025A000BDF81210608A081A00B2ADF80A00D4F81B
:1025B00008A004F11000FFF710FC0646BDF8060065
:1025C00010FB06F00AEB400A0095A06801AA31460C
:1025D000079B07F0D8FC00BFB8E7000010B506481D
:1025E000006840B10448006805F0CAF800200249BC
:1025F00008600249086010BD4C0C00203C0000201F
:1026000010B5044613480068844202D81248006896
:1026100010BD104804601048006860B9204605F0FD
:1026200089F80D4908600846006808B900BFFEE750
:1026300009480068ECE721460748006805F0FEF805
:10264000054908600846006808B900BFFEE702486F
:102650000068DDE73C0000204C0C00202DE9F04331
:1026600087B006460F4615469846DDF83890C5B93E
:10267000FF231D4A3946304600F04DFE00204FF63C
:10268000FF71CDE90201CDE9041018A1FF23164A1C
:10269000CDE900103946304600F02CF807B0BDE80F
:1026A000F08343462A4639463046CDF8009004F080
:1026B0001DFC0446B4B9FF230B4A3946304600F0EE
:1026C0002AFE00204FF6FF71CDE90201CDE904108A
:1026D00006A1FF23044ACDE900103946304600F038
:1026E00009F8DBE700BFD9E74C0E00204E6F0A6403
:1026F000617461002DE9FF4FA7B082461446DDF8F2
:10270000E480DDE93476606A269006F0020020B9A4
:102710005046FFF770FB259010E047F61841B4F9DA
:102720002A008DE84300B4F92830394609A8626AC6
:1027300007F0D8F8BDF92400259000BF00BF269807
:10274000007A618D084400B2249000202390BAF8EA
:102750000000ADF88800BAF80200ADF88A00002049
:1027600021902090369870B13698B0F900002190F1
:102770003698B0F902002090BDF88A1020980844DD
:1027800000B2ADF88A000025681E1F90B8F1000F56
:1027900020D02098F0B9BAF90210D8F80800401AF1
:1027A000002805DDBAF90210D8F80800401A04E044
:1027B000BAF90200D8F80810401A24994900C1F566
:1027C0008061884203DD4FF0FF30C8F80000D8F880
:1027D00000001F90B8F1000F0BD01F98002808DBF5
:1027E0001F9DBDF88A00B8F80410084400B2ADF887
:1027F0008A000096B4F928207819DDE9253106F021
:10280000E1FF00EB05092EE04D460096B4F92820C3
:102810007819DDE9253106F0D5FF8144BDF88A102D
:102820002498084400B2ADF88A00B8F1000F15D022
:10283000BDF98A0010F5806F10DBD8F80000002881
:102840000CDAC8F80050BDF98A00BAF90210401A33
:10285000C8F80400BAF90200C8F80800785D10B999
:102860002BB0BDE8F08FBDF98A1024980144289858
:10287000B0F902008142C7DB06F00400D0B1009637
:10288000B4F92830A9EB050291B27819269A07F01D
:102890008FF823905046FFF7AEFA2399A0EB010B77
:1028A0000BEBDB70BDF8881001EB600000B2ADF8F7
:1028B000880018E006F00800A8B10096B4F92830A6
:1028C000A9EB050291B27819269A07F071F82390C6
:1028D0005046FFF790FA2399401ABDF88810084433
:1028E00000B2ADF888002A98FF2802D12C20005DA4
:1028F00004E02C20005D2A99484300121E9000201D
:102900001D901B90AF490AA806F0B0FA608CADF894
:102910002A000AA8BDF82A10ADF82C104BE1369811
:1029200030B1BDF888102198084400B2ADF8880095
:1029300000201D901C95E5E01CA93846A24A1268AB
:10294000904709901C99781800219F4A1268904777
:10295000089006F00100002877D09CA00178099823
:10296000814213D11D9828B91C9880B21B90012078
:102970001D90C7E01D98012802D100201D9005E0A0
:102980001D98022802D100201D90BBE01D9801284F
:102990005BD10998202857D1DDE91B01081A0728C7
:1029A0004ED11B983844016805918088ADF8180015
:1029B00000208DF81A009DF81500FFF747F98346AF
:1029C0009DF81400FFF742F90BEB001004909DF8FE
:1029D0001700FFF73BF983469DF81600FFF736F91D
:1029E0000BEB001003909DF81900FFF72FF98346B9
:1029F0009DF81800FFF72AF90BEB00100290049BDA
:102A0000D8B2039BD9B2029BDAB24FEAD20CBDF81E
:102A100004306CF3040301934FEA910CBDF80430C9
:102A20006CF34A1301934FEAD00CBDF804306CF3F9
:102A3000CF230193BDF804C063461A9302E004E07B
:102A4000208C1A9002201D905CE0206A07901D984F
:102A5000022801D11A980790DDE90821269803F091
:102A600028FB00B219904FF6FF713798884230D09A
:102A7000389888422DD03846554A1C99126890479C
:102A800083463798834523DD3898834520DCBDF89D
:102A90008800ADF81400BDF88A00ADF81600BDF846
:102AA000881019980144208D0844401E00B2ADF8EA
:102AB0001800BDF88A1024980844401E00B2ADF8F2
:102AC0001A000AAA05A81E9B289900F024FC00BF42
:102AD00000BF1E980190BDF81C00ADF8000022A8B0
:102AE000099B269A289900F075F81998002808DDA6
:102AF000BDF88810228D19981044084400B2ADF832
:102B0000880000BF1C984845FFF416AF4D4600965C
:102B1000B4F928207819DDE9253106F053FE814407
:102B2000BAF80000ADF8880006F00400D0B10096B5
:102B3000B4F92830A9EB050291B27819269A06F06B
:102B400037FF23905046FFF756F92399A0EB010B6E
:102B50000BEBDB70BDF8881001EB600000B2ADF844
:102B6000880018E006F00800A8B10096B4F92830F3
:102B7000A9EB050291B27819269A06F019FF239065
:102B80005046FFF738F92399401ABDF888100844D9
:102B900000B2ADF88800BDF88A102498084400B24D
:102BA000ADF88A00BDF98A102898B0F90600814274
:102BB00000DD55E600BF785D00287FF4B0AE00BFB1
:102BC0004EE60000880E0020780C00202300000054
:102BD000840C00202DE9FF4F9DB00C46D1A0006869
:102BE0001C90D1A000681B90D0A30FCB17AD0FC5D0
:102BF0002B98102802DA21B0BDE8F08F2B98FB2823
:102C000001DDFF202B901F9800B9F4E7002315A9E0
:102C1000DDE91F0203F0FCF91490149800B9EAE70B
:102C20001D9800889DF95810084405B21F98017A34
:102C3000407A091A1D98408808449DF85710401A98
:102C40009DF95910401A06B29DF85A00012806D085
:102C5000022809D004280CD0082814D10EE00DF168
:102C6000700B802013900FE00DF16C0BC0201390BF
:102C70000AE00DF15C0BF020139005E04FF0000B23
:102C8000FF20139000E0B6E700BFDDE91F0103F06D
:102C9000B7F98246BAF1000F00D1ACE79DF85600B3
:102CA0002844B4F9001088420EDBB4F90400A842AD
:102CB0000ADB9DF857003044B4F90210884203DB68
:102CC000B4F90600B04200DA95E705F033FF119041
:102CD0001198FFF7C9FA804608F11000FFF77DF858
:102CE0001090D8F808709DF85600C0100D909DF80F
:102CF000560000F0070018B10D98401CC0B20D90AE
:102D00009DF856009DF85A1010FB01F00C90B4F994
:102D10000000A84201DC002002E0B4F90000401BE2
:102D200000B20B909DF856002844B4F90410884274
:102D300002DC9DF8560003E0B4F90400401B401C7F
:102D400000B20A90B4F90200B04201DC002002E0B7
:102D5000B4F90200801B00B209909DF8570030447E
:102D6000B4F90610884202DC9DF8570003E0B4F97C
:102D70000600801B401C00B20890B8F91200311AFE
:102D8000109801FB0050B8F91010401A07EB4007EB
:102D9000109A0B99099800FB021007EB40070C9959
:102DA000099848439DF85A200B9901FB02000790AF
:102DB00007980AEBD00A079800F007090020049052
:102DC00009980E90A7E0139840FA09F012900B981A
:102DD0000F9080E0C9F108009DF85A10421A9AF845
:102DE000000012990840104106900698D0B32B9825
:102DF000FF280AD19DF85A00082801D1069802E060
:102E000006981BF8000005900FE09DF85A0008286E
:102E100004D12B9906984843001205E006981BF848
:102E200000002B9948430012059011984069D0B1D9
:102E300005980290BDF8A800ADF804000E9881191D
:102E4000B8F81200081A00B200900F982844B8F899
:102E50001020801A03B2D8F808101198D0F814C0C6
:102E6000109AE0471BE03888BDF8A810884216D0B9
:102E70000598FB2803DDBDF8A80038800FE0059811
:102E800010280CDD049850B9388802900146059A44
:102E90002A98FFF7C1F80390BDF80C003880BF1CDA
:102EA0009DF85A00C0F1080048450ADD9DF85A0017
:102EB00048441FFA80F99DF85A1012980841129060
:102EC00005E04FF00009139812900AF1010A0F98DB
:102ED000401C00B20F900A990F988842FFF67AAF13
:102EE0009DF856100A98091A0B9808449DF85A1034
:102EF00000FB01901FFA80F90AEBE90A09F00709C3
:102F0000DDE90A01411A1098401A07EB40070E98B4
:102F1000401C00B20E9008990E988842FFF653AFFD
:102F200000BF68E600FF00000055AAFF0011223331
:102F3000445566778899AABBCCDDEEFF2DE9FF4F9B
:102F40008FB090461298102802DA13B0BDE8F08FC7
:102F50001298FB2801DDFF2012900DA8DDE90F1269
:102F6000FEF757FF0C900C9800B9EEE71D9808B1DA
:102F7000032000E0022082460F98FEF72EFF0B9000
:102F80000F98B0F90200BDF93610884209DABDF990
:102F900036100F98B0F90200081A0B99484300FB4D
:102FA0000A880F98B0F90000BDF93410884207DA9A
:102FB000BDF934100F98B0F90000081A00FB0A8818
:102FC00005F0B8FD81464846FFF74EF90746BDF8C3
:102FD0003400398A401A00B2ADF83400BDF836101A
:102FE000788A081A00B2ADF83600BDF83800398A80
:102FF000401A00B2ADF83800BDF83A10788A081AC5
:1030000000B2ADF83A0007F11000FEF7E6FE0A90B4
:10301000BD68BDF836100A9811FB00F005EB4005BD
:10302000BDF9340005EB40050DA8FEF7D6FE09906A
:10303000002008901C9800284AD11D98002847D1EC
:103040001298FF2844D11F98002841D1D9F81400C4
:1030500040B3BDF9364020E0002616E006FB0A80AA
:103060000088079012980290BDF81C00ADF804008B
:103070000094BDF83400304403B2B968D9F814C0E4
:1030800048460A9AE047701C06B209988642E5DB7A
:103090000B9800FB0A88601C04B2BDF93A00A042FC
:1030A000DADACBE0BDF936400DE041462846129B06
:1030B000099A07F00CF80B9800FB0A880A9805EBB0
:1030C0004005601C04B2BDF93A00A042EDDAB5E05B
:1030D0000020079007980690DDE91E020699FEF78A
:1030E0009BFF0590BDF93640A2E0002694E0DDF894
:1030F00048B006FB0A8004901D9888B104990A78AC
:10310000497802EB012189B203910499887800B9CA
:1031100080E0FF2803D000FB0BF14FEA112B02E007
:103120000498008803901C9830B1BDF80C00B9F8E1
:103130001C10884200D16DE01F98D0B3BDF8180074
:10314000BDF80C10884207D003980690DDE91E02F6
:103150000699FEF761FF0590D9F8140088B1CDF803
:1031600008B0BDF81400ADF804000094BDF83400B8
:10317000304403B2B968D9F814C048460A9AE04707
:1031800047E0BBF1FF0F04D1BDF8140025F816008D
:103190003FE005EB460000885A460146019005983D
:1031A000FEF73AFF029005EB4600BDF808100180DB
:1031B0002FE0FFE7D9F8140088B1CDF808B0BDF8CA
:1031C0000C00ADF804000094BDF83400304403B2A4
:1031D000B968D9F814C048460A9AE04719E0BBF12B
:1031E000FF0F05D105EB4600BDF80C10018010E083
:1031F000089870B905EB460000885A4601460190D0
:103200000398FEF709FF029005EB4600BDF8081091
:10321000018000BF701C06B209988642FFF667AFB6
:103220000B9800FB0A880A9805EB4005601C04B265
:10323000BDF93A00A042BFF658AF00BF00BF84E618
:103240002DE9FF4F83B004460D461746DDF8408058
:10325000B8F1100F02DA07B0BDE8F08FB8F1FB0F3C
:1032600001DD4FF0FF08B7F90000A0420BDCB7F911
:103270000400A04207DBB7F90200A84203DCB7F95B
:103280000600A84200DAE6E705F054FC814648460D
:10329000FEF7EAFF064606F11000FEF79EFD8246A5
:1032A000308A201A04B2708A281A05B2D9F814009C
:1032B00078B1CDF80880BDF81800ADF8040000958D
:1032C000B16823460FFA8AF24846D9F814C0E0479D
:1032D0001FE000200290D6F808B005FB0A400BEB77
:1032E000400B0298A0B9B8F1FF0F04D1BDF8180047
:1032F000ABF800000CE0BBF800004246014600902D
:103300000698FEF789FE0190BDF80400ABF80000B6
:1033100000BF00BF9FE72DE9F04105460E46144669
:103320001F462846FEF73AFD012804DB2846FEF733
:1033300069FD012801DABDE8F081608A28B13B46C9
:1033400022463146284602F085F931462846FEF7E6
:10335000BEFD00B9EFE7207A10280DDD3B4622467E
:103360003146284602F0C4F8E08828B13B462246A0
:103370003146284601F0A8FAA08990B1A07B80B11F
:10338000E07B10280DDB3B4622463146284601F003
:1033900062F8E08828B13B4622463146284600F0D4
:1033A00002F800BFC7E70FB5A3B02598C08880B268
:1033B000229005F0BFFB0790FEF749FF219025986A
:1033C000B0F90C002090259840891F902598807BAB
:1033D0001E902698FF2802D12598C07B04E02598EE
:1033E000C07B2699484300121D902098401E00B2D1
:1033F0002090219818B12098401E00B22090239868
:10340000FEF700FD1C902398FEF7C8FC1B90DDE939
:103410001B212298FFF770F82290239801882298A8
:1034200001442198084400B2ADF86800239841880F
:10343000229801442198084400B2ADF86A0023980C
:103440000188229801442198084400B2ADF8640034
:103450002398C1882298091A2198081A00B2ADF859
:103460006600239881882298091A2198081A00B2C8
:10347000ADF86000239841882298014421980844BF
:1034800000B2ADF86200239881882298091A219829
:10349000081A00B2ADF85C002398C1882298091A76
:1034A0002198081A00B2ADF85E00229802B215A960
:1034B00016A8FEF773FD20992298401A00B21290C8
:1034C0001298002801DA0020129013A914A8129A69
:1034D000FEF764FD00200D900C90229800B20B9036
:1034E00000200A90099020992298401A00B2089072
:1034F000FCE3BDF95200BDF95010884209DABDF86D
:103500005800BDF85010401A00B20F900F980E905E
:103510000AE0BDF85800BDF85A10401A00B20F90EA
:103520000F98401E00B20E90219800287DD0BDF962
:1035300058100B98814279D0BDF95A000C90DDE902
:103540000C01401A00B207900B98ADF818000D98C6
:10355000ADF81A000020059027E10798012806DD44
:103560001D9A05990798FEF7B9F8049008E01D9A8E
:1035700005990798FEF7A6FF1D99081AC0B2049096
:103580001E9800F00100D8B31E9800F00800B8B3F0
:1035900004980090BDF85E00BDF81A10014405982B
:1035A000084400B20290BDF85C00BDF81810084451
:1035B000401C00B201902598408903460390249A4C
:1035C000DDE90101FFF73CFE04980090BDF85E00C4
:1035D000BDF818100844401C00B20290BDF85C0011
:1035E000BDF81A1001440598084400B201902598CE
:1035F000408903460390249ADDE90101FFF720FE8C
:103600001E9800F00100E8B31E9800F00400C8B353
:1036100004980090BDF86600BDF818100844401CDE
:1036200000B20290BDF8640001E04CE1C8E0BDF8D2
:103630001A10494201440598081A00B201902598D1
:10364000408903460390249ADDE90101FFF7F8FD64
:1036500004980090BDF86600BDF81A100144059862
:10366000084400B20290BDF86400BDF81810494249
:103670000844401E00B201902598408903460390FB
:10368000249A00E003E0DDE90101FFF7D9FD1E986F
:1036900000F00200E0B31E9800F00400C0B30498EC
:1036A0000090BDF86A00BDF81A104942014405981F
:1036B000081A00B20290BDF86800BDF8181049421F
:1036C0000844401E00B201902598408903460390AB
:1036D000249ADDE90101FFF7B3FD04980090BDF8DD
:1036E0006A00BDF8181049420844401E00B202901A
:1036F000BDF86800BDF81A10494201440598081A3F
:1037000000B201902598408903460390249A00E076
:1037100003E0DDE90101FFF793FD1E9800F00200D0
:10372000E0B31E9800F00800C0B304980090BDF804
:103730006200BDF8181049420844401E00B20290D1
:10374000BDF86000BDF81A1001440598084400B2A5
:1037500001902598408903460390249ADDE90101F0
:10376000FFF76EFD04980090BDF86200BDF81A10D6
:10377000494201440598081A00B20290BDF8600061
:10378000BDF818100844401C00B2019025984089EB
:1037900003460390249ADDE9010100E001E0FFF710
:1037A0004FFD0598401C00B2059007990598884286
:1037B000FFF6D3AEBDF958000B900C980D9000BFEA
:1037C000BDF95010089881427DD0BDF95A0009908A
:1037D000DDE90901401A00B207900898ADF8180019
:1037E0000A98ADF81A00002005904BE107980128CF
:1037F00009DD1D9A05990798FDF770FF1D99081AB4
:10380000C0B2049005E01D9A05990798FEF75AFE8C
:1038100004901E9800F00100F8B11E9800F0080016
:10382000D8B104980090BDF85E00BDF81A100144AC
:103830000598084400B20290BDF85C00BDF818106D
:103840000844401E00B20190259840890346039029
:10385000249ADDE90101FFF7F3FC1E9800F0010056
:1038600000B31E9800F00400E0B104980090BDF889
:103870006600BDF818100844401E00B20290BDF862
:103880006400BDF81A10494201440598081A00B2B4
:1038900001902598408903460390249ADDE90101AF
:1038A000FFF7CEFC1E9800F0020018B31E9800F03F
:1038B0000400F8B104980090BDF86A00BDF81A1031
:1038C0004942014400E0E8E00598081A00B202907D
:1038D000BDF86800BDF8181049420844401C00B209
:1038E00001902598408903460390249ADDE901015F
:1038F000FFF7A6FC1E9800F0020000B31E9800F02F
:103900000800E0B104980090BDF86200BDF81810FE
:1039100049420844401C00B20290BDF86000BDF866
:103920001A1001440598084400B201902598408976
:1039300003460390249ADDE90101FFF781FCBDF9FC
:103940001800401EBDF91A200599114488427ED006
:103950001E9800F00100F8B11E9800F00800D8B1E0
:1039600004980090BDF85E00BDF818100844401E91
:1039700000B20290BDF85C00BDF81A100144059831
:10398000084400B201902598408903460390249A88
:10399000DDE90101FFF754FC1E9800F0010000B3BF
:1039A0001E9800F00400E0B104980090BDF8660095
:1039B000BDF81A1001440598084400B20290BDF801
:1039C0006400BDF8181049420844401C00B2019040
:1039D0002598408903460390249ADDE90101FFF709
:1039E0002FFC1E9800F0020008B31E9800F004009F
:1039F000E8B104980090BDF86A00BDF8181049427B
:103A00000844401C00B20290BDF86800BDF81A10CE
:103A1000494201440598081A00B20190259840894E
:103A200003460390249ADDE90101FFF709FC1E9883
:103A300000F0020058B11E9800F0080038B1049858
:103A40000090BDF86200BDF81A10494200E015E090
:103A500001440598081A00B20290BDF86000BDF854
:103A600018100844401E00B2019025984089034672
:103A70000390249ADDE90101FFF7E2FB0598401C61
:103A800000B20590079905988842FFF6AFAEBDF9E0
:103A90005000089009980A9000BF1E9800F001009D
:103AA000E0B31E9800F00800C0B3BDF85C00BDF89C
:103AB000581001440E98081A00B2ADF84000BDF845
:103AC0005C00BDF85810084400B2ADF84400BDF8E1
:103AD0005E00BDF85A10084400B2ADF84200BDF8CF
:103AE0005E00BDF85A10084400B2ADF8460010A8B8
:103AF0001D9B1F9A2499FEF721FDBDF85C00BDF8BF
:103B00005A10084400B2ADF84000BDF85C00BDF8A2
:103B10005A10084400B2ADF8440000E017E0BDF8C8
:103B20005E00BDF8581001440F98081A00B2ADF8B5
:103B30004200BDF85E00BDF85810084400B2ADF870
:103B4000460010A81D9B1F9A2499FEF7F7FC1E98AB
:103B500000F00100E8B31E9800F00400C8B3BDF8FF
:103B60006400BDF85A104942084400B2ADF8400064
:103B7000BDF86400BDF85A104942084400B2ADF8DF
:103B80004400BDF86600BDF8581001440E98081AAC
:103B900000B2ADF84200BDF86600BDF85810084408
:103BA00000B2ADF8460010A81D9B1F9A2499FEF79D
:103BB000C5FCBDF86400BDF858104942084400B285
:103BC000ADF84000BDF86400BDF85810494201440A
:103BD00000E01AE00F98084400B2ADF84400BDF8C8
:103BE0006600BDF85A10084400B2ADF84200BDF8B6
:103BF0006600BDF85A10084400B2ADF8460010A89F
:103C00001D9B1F9A2499FEF799FC1E9800F0020054
:103C1000E8B31E9800F00400C8B3BDF96600BDF912
:103C20005A100844BDF96A10BDF95A205242114495
:103C300088422BDDBDF86800BDF8581049420844A1
:103C400000B2ADF84000BDF86800BDF85810494218
:103C500001440E98084400B2ADF84400BDF86A0073
:103C6000BDF85A104942084400B2ADF84200BDF810
:103C70006A00BDF85A104942084400B2ADF8460047
:103C800010A81D9B1F9A2499FEF758FC00E02BE01A
:103C9000BDF86800BDF85A104942084400B2ADF8BA
:103CA0004000BDF86800BDF85A104942084400B20F
:103CB000ADF84400BDF86A00BDF858104942084408
:103CC00000B2ADF84200BDF86A00BDF85810494294
:103CD00001440F98084400B2ADF8460010A81D9B9F
:103CE0001F9A2499FEF72AFC1E9800E077E000F066
:103CF0000200E8B31E9800F00800C8B3BDF86000E9
:103D0000BDF85A10084400B2ADF84000BDF860009C
:103D1000BDF85A10084400B2ADF84400BDF8620086
:103D2000BDF858104942084400B2ADF84200BDF851
:103D30006200BDF85810494201440E98084400B290
:103D4000ADF8460010A81D9B1F9A2499FEF7F6FBBC
:103D5000BDF95E00BDF95A100844BDF96210BDF905
:103D60005A205242114488422BDDBDF8600000E029
:103D700027E0BDF8581001440F98081A00B2ADF8BA
:103D80004000BDF86000BDF85810084400B2ADF81E
:103D90004400BDF86200BDF85A104942084400B220
:103DA000ADF84200BDF86200BDF85A10494208441F
:103DB00000B2ADF8460010A81D9B1F9A2499FEF78B
:103DC000BDFB15A916A8FEF7F1F8BDF95200BDF923
:103DD0005010884203DA13A914A8FEF7E7F8BDF9DA
:103DE0005A00BDF9581088427FF783AB219800280C
:103DF0007DD0BDF95A000C90DDE90C01401A00B2EB
:103E000007900B98ADF818000D98ADF81A00002037
:103E100005901CE11D9A05990798FEF753FB1D9923
:103E2000081AC0B204901E9800F00100D8B31E9882
:103E300000F00800B8B304980090BDF85E00BDF82B
:103E40001A1001440598084400B20290BDF85C00C5
:103E5000BDF818100844401C00B201902598408914
:103E600003460390249ADDE90101FFF7E9F904987C
:103E70000090BDF85E00BDF818100844401C00B268
:103E80000290BDF85C00BDF81A1001440598084482
:103E900000B201902598408903460390249ADDE9F9
:103EA0000101FFF7CDF91E9800F00100E0B31E9864
:103EB00000F00400C0B304980090BDF86600BDF89F
:103EC00018100844401C00B20290BDF86400BDF810
:103ED0001A10494201440598081A00B20190259829
:103EE000408903460390249ADDE9010100E0B0E235
:103EF000FFF7A6F904980090BDF86600BDF81A1007
:103F000001440598084400B20290BDF86400BDF871
:103F1000181049420844401E00B20190259840897B
:103F200003460390249A00E003E0DDE90101FFF776
:103F300087F91E9800F00200E0B31E9800F004001C
:103F4000C0B304980090BDF86A00BDF81A10494249
:103F500001440598081A00B20290BDF86800BDF847
:103F6000181049420844401E00B20190259840892B
:103F700003460390249ADDE90101FFF761F90498F3
:103F80000090BDF86A00BDF8181049420844401E70
:103F900000B20290BDF86800BDF81A104942014411
:103FA0000598081A00B201902598408903460390AD
:103FB000249A00E003E0DDE90101FFF741F91E98D2
:103FC00000F00200E0B31E9800F00800C0B30498AF
:103FD0000090BDF86200BDF8181049420844401E28
:103FE00000B20290BDF86000BDF81A1001440598B7
:103FF000084400B201902598408903460390249A12
:10400000DDE90101FFF71CF904980090BDF862009A
:10401000BDF81A10494201440598081A00B20290EE
:10402000BDF86000BDF818100844401C00B20190B3
:104030002598408903460390249ADDE9010100E0B8
:1040400001E0FFF7FDF80598401C00B205900799C4
:1040500005988842FFF6DEAEBDF91800BDF91A10CA
:10406000401A002805DDBDF91800BDF91A10401AE4
:1040700004E0BDF91A00BDF91810401A07998842EA
:104080007DD10B98ADF818000B98ADF81A001D986B
:10409000401004901E9800F00100E0B11E9800F05E
:1040A0000800C0B104980090BDF85E00BDF818107B
:1040B000084400B20290BDF85C00BDF81A10084434
:1040C00000B201902598408903460390249ADDE9C7
:1040D0000101FFF7B5F81E9800F00100E8B11E9845
:1040E00000F00400C8B104980090BDF86600BDF867
:1040F0001A10084400B20290BDF86400BDF8181010
:104100004942084400B20190259840890346039033
:10411000249ADDE90101FFF793F81E9800F00200F0
:10412000F0B11E9800F00400D0B104980090BDF8E2
:104130006A00BDF818104942084400B20290BDF868
:104140006800BDF81A104942084400B20190259851
:10415000408903460390249ADDE90101FFF770F8D6
:104160001E9800F00200F8B11E9800F00800D8B1C7
:1041700004980090BDF86200BDF81A1000E014E049
:104180004942084400B20290BDF86000BDF8181022
:10419000084400B201902598408903460390249A70
:1041A000DDE90101FFF74CF800BFBDF952000990AD
:1041B0000898ADF818000A98ADF81A00DDE9090171
:1041C000401A00B20790002005903CE11D9A059925
:1041D0000798FEF777F904901E9800F00100F8B1F7
:1041E0001E9800F00800D8B104980090BDF85E0059
:1041F000BDF81A1001440598084400B20290BDF8B9
:104200005C00BDF818100844401E00B201902598CB
:10421000408903460390249ADDE90101FFF710F875
:104220001E9800F0010000B31E9800F00400E0B1F9
:1042300004980090BDF86600BDF818100844401EB0
:1042400000B20290BDF86400BDF81A104942014462
:104250000598081A00B201902598408903460390FA
:10426000249ADDE90101FEF7EBFF1E9800F0020041
:1042700008B31E9800F00400E8B104980090BDF85F
:104280006A00BDF81A10494201440598081A00B2A4
:104290000290BDF86800BDF8181049420844401C5F
:1042A00000B201902598408903460390249ADDE9E5
:1042B0000101FEF7C5FF1E9800F0020000B31E9832
:1042C00000F00800E0B104980090BDF86200BDF86D
:1042D000181049420844401C00B20290BDF860002A
:1042E000BDF81A1001440598084400B201902598C1
:1042F000408903460390249ADDE90101FEF7A0FFFF
:10430000BDF91800401EBDF91A20059911448842D4
:104310007DD01E9800F00100F8B11E9800F0080052
:10432000D8B104980090BDF85E00BDF8181008449C
:10433000401E00B20290BDF85C00BDF81A100144A6
:104340000598084400B201902598408903460390DF
:10435000249ADDE90101FEF773FF1E9800F00100C9
:1043600000B31E9800F00400E0B104980090BDF87E
:104370006600BDF81A1001440598084400B2029086
:10438000BDF86400BDF8181049420844401C00B252
:1043900001902598408903460390249ADDE90101A4
:1043A000FEF74EFF1E9800F0020008B31E9800F0C2
:1043B0000400E8B104980090BDF86A00BDF8181038
:1043C00049420844401C00B20290BDF86800BDF8A4
:1043D0001A10494201440598081A00B20190259824
:1043E000408903460390249ADDE90101FEF728FF86
:1043F0001E9800F0020050B11E9800F0080030B185
:1044000004980090BDF86200BDF81A1000E016E0B4
:10441000494201440598081A00B20290BDF86000B4
:10442000BDF818100844401E00B20190259840893C
:1044300003460390249ADDE90101FEF701FF059888
:10444000401C00B20590079905988842FFF6BEAE61
:1044500000BF27B000BD2DE9FF4F87B0044691464D
:10446000B9F806001FFA80F804F064FB0090FDF72D
:10447000EEFE07462046FDF7C5FC06902046FDF7F8
:104480008DFC0590B9F90C600A98FF2802D199F8C3
:104490000F0004E099F80F000A99484300120490B5
:1044A00099F80E50B9F80A0003904FF0000BDA4665
:1044B000701E06B24046DDE90521FEF71DF8804674
:1044C000B04506DAA6EB0800C01B0FFA80FBB24627
:1044D00003E008EB07000FFA80FAB9F8060000289D
:1044E0007DD105F0020098B12088ADF80400A088C5
:1044F000ADF808006088ADF806006088304400B26E
:10450000ADF80A0001A8DDE903230899FEF716F8C3
:1045100005F0080028B3A088801B00B2ADF80400A5
:10452000A088ADF80800B4F9021005F0020008B147
:10453000701C00E00020084400B2ADF80600B4F999
:10454000061005F0010008B1701C00E00020081AF8
:1045500000B2ADF80A0001A8DDE903230899FDF7D0
:10456000EDFF05F0040028B32088ADF80400208892
:10457000304400B2ADF80800B4F9021005F00200B2
:1045800008B1701C00E00020084400B2ADF806003D
:10459000B4F9061005F0010008B1701C00E000201D
:1045A000081A00B2ADF80A0001A8DDE90323089952
:1045B000FDF7C4FF05F00100A8B12088ADF80400A4
:1045C000A088ADF80800E088801B00B2ADF80600B6
:1045D000E088ADF80A0001A8DDE9032300E005E06A
:1045E0000899FDF7ABFF0BB0BDE8F08F0AF10100B1
:1045F0000FFA80FA05F0020028B16088504400B23A
:10460000ADF8060004E06088404400B2ADF8060052
:1046100005F0010030B1E088A0EB0A0000B2ADF86F
:104620000A0005E0E088A0EB080000B2ADF80A003F
:1046300005F0040070B12088ADF80400BDF8040056
:10464000304400B2ADF8080001A8DDE90323089961
:10465000FDF774FF05F0080070B1A088ADF8080000
:10466000BDF80800801B00B2ADF8040001A8DDE928
:1046700003230899FDF762FF20885044A0EB0B004C
:1046800000B2ADF80400A088A0EB0A00584400B2C4
:10469000ADF8080005F0020068B16088ADF80600CA
:1046A0006088304400B2ADF80A0001A8DDE90323B8
:1046B0000899FDF743FF05F0010070B1E088ADF8FF
:1046C0000A00BDF80A00801B00B2ADF8060001A880
:1046D000DDE903230899FDF731FFBBF1000F7ED020
:1046E00005F00200E8B105F00400D0B12088ADF873
:1046F000040020884044384400B2ADF808006088C7
:104700004044401C384400B2ADF806006088304494
:1047100000B2ADF80A0001A8DDE903230899FDF70E
:104720000DFF05F00200F0B105F00800D8B1A08837
:10473000A0EB0800C01B00B2ADF80400A088ADF8E3
:10474000080060884044401C384400B2ADF80600C0
:104750006088304400B2ADF80A0001A8DDE9032307
:104760000899FDF7EBFE05F00100F0B105F004003B
:10477000D8B12088ADF8040020884044384400B205
:10478000ADF80800E088801B00B2ADF80600E088B4
:10479000A0EB0800401EC01B00B2ADF80A0001A843
:1047A000DDE903230899FDF7C9FE05F00100B0B16A
:1047B00005F0080098B1A088A0EB0800C01B00B26B
:1047C000ADF80400A088ADF80800E088801B00B2B6
:1047D000ADF80600E088A0EB0800401E00E009E00C
:1047E000C01B00B2ADF80A0001A8DDE90323089957
:1047F000FDF7A4FEB9F80600002863D105F0060015
:10480000A8B12088ADF804002088384400B2ADF883
:1048100008006088ADF806006088384400B2ADF842
:104820000A0001A8DDE903230899FDF787FE05F0DA
:104830000A00A8B1A088C01B00B2ADF80400A0888F
:10484000ADF808006088ADF806006088384400B212
:10485000ADF80A0001A8DDE903230899FDF76EFE13
:1048600005F00500A8B12088ADF804002088384480
:1048700000B2ADF80800E088C01B00B2ADF8060039
:10488000E088ADF80A0001A8DDE903230899FDF7E7
:1048900055FE05F00900A8B1A088C01B00B2ADF814
:1048A0000400A088ADF80800E088C01B00B2ADF895
:1048B0000600E088ADF80A0001A8DDE903230899A5
:1048C000FDF73CFE00BF8EE60FB5A9B02B98C0885F
:1048D00080B2289004F02EF90B90FDF7B8FC2790D9
:1048E0002B98408826902B98808825902C98FF281C
:1048F00002D12B98007A04E02B98007A2C99484337
:10490000001223902998FDF749FA21902998FDF784
:1049100079FA2090DDE920122898FDF7EDFD289026
:1049200029980188289801442798084400B2ADF8D6
:104930007C0029984188289801442798084400B2AF
:10494000ADF87E00299801882898014427980844EA
:1049500000B2ADF878002998C1882898091A2798DC
:10496000081A00B2ADF87A00299881882898091AA7
:104970002798081A00B2ADF8740029984188289841
:1049800001442798084400B2ADF876002998818840
:104990002898091A2798081A00B2ADF870002998CB
:1049A000C1882898091A2798081A00B2ADF8720031
:1049B000289802B212A913A8FDF7F0FABDF8720008
:1049C000BDF84E10084400B20090BDF87000BDF86C
:1049D0004C10084400B20B90BDF87A00BDF84E10A0
:1049E000084400B20A90BDF87800BDF84C10494266
:1049F000084400B20990014616A8DDE90A23FDF734
:104A0000B5FABDF87200BDF84C10084400B2009031
:104A1000BDF87000BDF84E10084400B20B90BDF810
:104A20007A10BDF84C00084400B20A90BDF8780036
:104A3000BDF84E104942084400B20990014614A83E
:104A4000DDE90A23FDF792FABDF87600BDF84E10B5
:104A50004942084400B20090BDF87400BDF84C1003
:104A6000084400B20B90BDF87E00BDF84E104942DC
:104A7000084400B20A90BDF87C00BDF84C104942D1
:104A8000084400B20990014618A8DDE90A23FDF7A1
:104A90006DFABDF87600BDF84C104942084400B2EA
:104AA0000090BDF87400BDF84E10084400B20B90A1
:104AB000BDF87E00BDF84C104942084400B20A908F
:104AC000BDF87C00BDF84E104942084400B2099080
:104AD00001461AA8DDE90A23FDF748FA00201190E3
:104AE0001090289800B20F908AE2279800287DD075
:104AF000BDF94C100F988142F9D0BDF94E001090CD
:104B0000DDE91001401A00B207900F98ADF81800C7
:104B10001198ADF81A000F992898401AC0EB00219F
:104B20002198B1FBF0F0C0B22290229ADDE9250174
:104B3000FDF7B0FA0E90229ADDE92510FDF7AAFAEA
:104B40000D9000200590F8E00798012806DD239AD3
:104B500005990798FCF7C2FD049008E0239A05998F
:104B60000798FDF7AFFC2399081AC0B20490049887
:104B70000090BDF87200BDF818100844401C00B247
:104B80000390BDF87000BDF81A1001440598084460
:104B900000B202900D9B2A9A0399FEF751FB0498EC
:104BA0000090BDF87A00BDF818100844401C00B20F
:104BB0000390BDF87800BDF81A10494201440598E9
:104BC000081A00B202900D9B2A9A0399FEF738FB4F
:104BD00004980090BDF87E00BDF8181049420844C2
:104BE000401E00B20390BDF87C0000E0B0E0BDF8CC
:104BF0001A10494201440598081A00B202900E9B0F
:104C00002A9A0399FEF71CFB04980090BDF87600E1
:104C1000BDF8181049420844401E00B20390BDF888
:104C20007400BDF81A1001440598084400B20290BF
:104C30000E9B2A9A0399FEF703FB11992898411AB3
:104C400005980844C0EB00212198B1FBF0F0C0B2F8
:104C50002290229ADDE92510FDF71CFA0C900498A9
:104C60000090BDF87210BDF81A0001440598084480
:104C700000B20390BDF87000BDF818100844401C45
:104C800000B202900C9B2A9A0399FEF7D9FA049875
:104C90000090BDF87A00BDF81A1001440598084448
:104CA00000B20390BDF87810BDF8180040420844E7
:104CB000401E00B202900C9B2A9A0399FEF7C0FA9C
:104CC000229ADDE92501FDF7E5F90C9004980090A2
:104CD000BDF87E00BDF81A10494201440598081A33
:104CE00000B20390BDF87C00BDF81810494208449A
:104CF000401E00B202900C9B2A9A0399FEF7A0FA7C
:104D000004980090BDF87610BDF81A0040420144A6
:104D10000598081A00B20390BDF87410BDF8180089
:104D20000844401C00B202900C9B2A9A0399FEF79B
:104D300087FA0598401C00B20590079905988842AB
:104D4000FFF602AFBDF94C000F901098119000BF14
:104D500000200B900A9009900890BDF94E10BDF903
:104D60007A000844BDF95A10884201D00120099008
:104D7000BDF94C10BDF97A000844BDF952108842C3
:104D800001D001200890BDF94E004042BDF97E10CF
:104D90000844BDF96210884201D001200A90BDF993
:104DA0004C004042BDF97E100844BDF96A108842AB
:104DB00001D001200B900B9808B3BDF89800BDF806
:104DC0009410884202D12698249012E02998B0F9D4
:104DD0000600BDF96A10401AC0EB00212198B1FB12
:104DE000F0F0C0B22290229ADDE92510FDF752F9C9
:104DF00024901AA8DDE923322A99FDF79FFB0A982F
:104E000008B3BDF89800BDF89410884202D12698E6
:104E1000249012E02998B0F90610BDF96200081A32
:104E2000C0EB00212198B1FBF0F0C0B22290229A91
:104E3000DDE92510FDF72EF9249018A8DDE92332CD
:104E40002A99FDF77BFB099808B3BDF89800BDF8D7
:104E50009410884202D12698249012E02998B0F943
:104E60000610BDF95A00081AC0EB00212198B1FBC9
:104E7000F0F0C0B22290229ADDE92510FDF70AF980
:104E8000249016A8DDE923322A99FDF757FB0898EC
:104E900008B3BDF89800BDF89410884202D1269856
:104EA000249012E02998B0F90600BDF95210401A7A
:104EB000C0EB00212198B1FBF0F0C0B22290229A01
:104EC000DDE92510FDF7E6F8249014A8DDE923328A
:104ED0002A99FDF733FBBDF87210BDF84E00084467
:104EE00000B20090BDF87000BDF84C10084400B24C
:104EF0000790BDF87A10BDF84E00084400B2069045
:104F0000BDF87810BDF84C004042084400B205904E
:104F1000014616A8DDE90623FDF728F8BDF8721052
:104F2000BDF84C00084400B20090BDF87000BDF818
:104F30004E10084400B20790BDF87A10BDF84C003E
:104F4000084400B20690BDF87810BDF84E0040420B
:104F5000084400B20590014614A8DDE90623FDF7D8
:104F600005F8BDF87610BDF84E004042084400B286
:104F70000090BDF87400BDF84C10084400B20790D2
:104F8000BDF87E00BDF84E104942084400B20690BC
:104F9000BDF87C00BDF84C104942084400B20590B1
:104FA000014618A8DDE90623FCF7E0FFBDF876000E
:104FB000BDF84C104942084400B20090BDF874009E
:104FC000BDF84E10084400B20790BDF87E00BDF851
:104FD0004C104942084400B20690BDF87C00BDF870
:104FE0004E104942084400B2059001461AA8DDE976
:104FF0000623FCF7BBFF12A913A8FCF7D7FF00BFDD
:1050000013A8FCF7C0FF00287FF46FADBDF898002F
:10501000BDF89410884202D12698249012E0299875
:10502000B0F90600BDF96A10401AC0EB00212198C2
:10503000B1FBF0F0C0B22290229ADDE92510FDF715
:1050400029F824901AA8DDE923322A99FDF776FA87
:10505000BDF96A00BDF96210884221D0BDF8980000
:10506000BDF89410884202D12698249012E0299825
:10507000B0F90600BDF96210401AC0EB002121987A
:10508000B1FBF0F0C0B22290229ADDE92510FDF7C5
:1050900001F8249018A8DDE923322A99FDF74EFA89
:1050A000BDF89800BDF89410884202D1269824904B
:1050B00012E02998B0F90600BDF95A10401AC0EB69
:1050C00000212198B1FBF0F0C0B22290229ADDE9D4
:1050D0002510FCF7DFFF249016A8DDE923322A997A
:1050E000FDF72CFABDF95200BDF95A10884221D0C3
:1050F000BDF89810BDF89400814202D12698249002
:1051000012E02998B0F90600BDF95210401AC0EB20
:1051100000212198B1FBF0F0C0B22290229ADDE983
:105120002510FCF7B7FF249014A8DDE923322A9953
:10513000FDF704FA279800287ED02998018828983E
:105140000844801C00B2ADF868002998818828982E
:10515000081A801E00B2ADF86C0029984088ADF89E
:105160006A0029984088ADF86E002B984088089016
:1051700002461AA8239B2A99FDF7E0F92998C088CE
:10518000ADF86A002998C088ADF86E002B98808829
:10519000089002461AA8239B2A99FDF7CFF9BDF97A
:1051A0004E001090DDE91001401A00B20B900F98EC
:1051B000ADF828001198ADF82A000F992898401AE8
:1051C000C0EB00212198B1FBF0F0C0B22290229AEE
:1051D000DDE92501FCF75EFF0D90229ADDE925103F
:1051E000FCF758FF0E9000200990EEE0239A0999F1
:1051F0000B98FDF767F92399081AC0B20890089830
:105200000090BDF87200BDF828100844401C00B2A0
:105210000790BDF87000BDF82A10014409980844B1
:1052200000B206900E9B2A9A0799FEF709F8089893
:105230000090BDF87A0000E058E1BDF8281008445D
:10524000401C00B20790BDF87810BDF82A0040421B
:1052500001440998081A00B206900E9B2A9A0799F1
:10526000FDF7EEFF08980090BDF87E00BDF828100D
:1052700049420844401E00B20790BDF87C10BDF8BA
:105280002A00404201440998081A00B206900D9B7A
:105290002A9A0799FDF7D4FF08980090BDF8760088
:1052A000BDF8281049420844401E00B20790BDF8DE
:1052B0007410BDF82A0001440998084400B2069011
:1052C0000D9B2A9A0799FDF7BBFF11992898411A5F
:1052D00009980844C0EB00212198B1FBF0F0C0B25E
:1052E0002290229ADDE92510FCF7D4FE0C90089854
:1052F0000090BDF87200BDF82A10014409980844D6
:1053000000B20790BDF87010BDF828000844401C9A
:1053100000B206900C9B2A9A0799FDF791FF089816
:105320000090BDF87A00BDF82A100144099808449D
:1053300000B20790BDF87800BDF828104942084433
:10534000401E00B206900C9B2A9A0799FDF778FF41
:10535000229ADDE92501FCF79DFE0C90089800904B
:10536000BDF87E10BDF82A00404201440998081A91
:1053700000B20790BDF87C00BDF8281049420844EF
:10538000401E00B206900C9B2A9A0799FDF758FF21
:1053900008980090BDF87600BDF82A1049420144F3
:1053A0000998081A00B20790BDF87400BDF82810DB
:1053B0000844401C00B206900C9B2A9A0799FDF7FE
:1053C0003FFF0998401C00B209900B990998884248
:1053D000FFF60CAFBDF92800BDF92A10401A0028CD
:1053E00005DDBDF92800BDF92A10401A04E0BDF919
:1053F0002A00BDF92810401A0B99884275D10F98E0
:10540000ADF828000F98ADF82A000F98C0EB0021E6
:105410002198B1FBF0F0C0B22290229ADDE925017B
:10542000FCF738FE0E90229ADDE92510FCF732FEDB
:105430000D9023984010089008980090BDF87200D5
:10544000BDF82810084400B20790BDF87010BDF8F0
:105450002A00084400B206900D9B2A9A0799FDF78E
:10546000EFFE08980090BDF87A00BDF82A100844B5
:1054700000B20790BDF87800BDF8281049420844F2
:1054800000B206900D9B2A9A0799FDF7D9FE08985D
:105490000090BDF87E00BDF828104942084400B2D3
:1054A0000790BDF87C00BDF82A104942084400B2BC
:1054B00006900E9B2A9A0799FDF7C2FE0898009065
:1054C000BDF87600BDF82A104942084400B20790A2
:1054D000BDF87410BDF82800084400B206900E9B79
:1054E0002A9A0799FDF7ACFE00BF00BF2DB000BDA2
:1054F0002DE9FF4F89B0044615469A46E88886B2E2
:1055000003F018FB0746FCF7A2FE08906888079096
:10551000A88806902046FCF741FC80462046FCF710
:1055200071FC0490BAF1FF0F01D1287A03E0287AC8
:1055300000FB0AF000120390424630460499FCF743
:10554000DBFF064608EBD871B6EB610F02DD0DB04C
:10555000BDE8F08F2088ADF80400A088ADF8080001
:10556000BDF81C00BDF8181088422DD16088304469
:1055700000B2ADF80600E088801B00B2ADF80A006A
:10558000E888D0B1089860B1BDF80600801C00B270
:10559000ADF80600BDF80A00801E00B2ADF80A00A2
:1055A0000BE0BDF80600401C00B2ADF80600BDF8E7
:1055B0000A00401E00B2ADF80A0001A8039B079A3A
:1055C0000A99FCF7BBFF43E0608830440FFA80F98A
:1055D000E088801B0FFA80FBE88890B1089840B102
:1055E00009F102000FFA80F9ABF102000FFA80FB1B
:1055F00007E009F101000FFA80F9ABF101000FFAA1
:1056000080FBB9F1000F01DA4FF000094F461CE0B2
:10561000ADF80670ADF80A70B4F90600BDF90610D1
:10562000401AC0EB0020B0FBF8F0C0B20590DDE9F5
:1056300005210798FCF72EFD009001A8039B009A16
:105640000A99FCF77BFF781C07B25F45E0DD00BFDD
:1056500000BF7CE72DE9FC4706460F4615469846F5
:10566000B5F906403046FCF7CDFB81463046FCF7E5
:1056700095FB8246A0B252464946FCF73DFF04B274
:1056800031466846FCF77EFBBDF80000204400B2BE
:10569000ADF80000BDF80400001B00B2ADF8040036
:1056A00069463846FCF7F6FB08B1BDE8FC87314691
:1056B0006846FCF767FBBDF80200204400B2ADF875
:1056C0000200BDF80600001B00B2ADF806006946F6
:1056D0003846FCF7DFFB00B1E7E7287D012806D15B
:1056E00043462A463946304600F044F907E0287D13
:1056F00028B943462A463946304600F002F800BF32
:10570000D3E72DE9FF4F95B08246164603F012FA13
:105710008146FCF79CFD1490B6F90650B6F912705C
:105720005046FCF76FFB13905046FCF737FB129086
:10573000A8B2DDE91221FCF7DFFE05B2149800EBF8
:105740004000284405B21498384407B2281D20F0C0
:1057500003001190119840001190F81C00F0FC001B
:10576000109010981090DDE910218818FCF748FF80
:105770000F90DDF83C80DDF83C80119808EB000BC1
:105780002A460DA90EA8FCF709FC0FE0BDF8380069
:10579000BDF93A1028F81100BDF83A00BDF93810EB
:1057A00028F811000DA90EA8FCF700FC0EA8FCF7C4
:1057B000EAFB0028EAD11898FF2801D1307A03E0EB
:1057C000307A1899484300120C90002409E0381BE5
:1057D0000C9948434008B0FBF7F00BF80400601C3C
:1057E00004B2BC42F3DBBAF80000284400B2ADF8C2
:1057F0001C00BAF80600401B401C1499401A00B265
:10580000ADF81E00BAF80400401B00B2ADF8180055
:10581000BAF80600401B401C1499401A00B2ADF8BB
:105820001A0000246BE0BDF81C00001B00B2ADF8AC
:105830002C00BDF81E0038F81410084400B2ADF872
:105840002E00BDF81800204400B2ADF82800BDF8C5
:105850001A0038F81410084400B2ADF82A000CB948
:10586000002005E0601E38F9100038F91410401AC5
:1058700000B203904FF000093DE0039818B91BF8FF
:105880000900049009E01BF809100398A9EB000037
:105890001BF8000008444008049004980090328AE5
:1058A0000292BDF92E10BDF92C001346169AFDF791
:1058B000C7FCBDF82E00401C00B2ADF82E00BDF9AB
:1058C0002800BDF91C1088420BDD04980090328A34
:1058D0000292BDF92A10BDF928001346169AFDF769
:1058E000AFFCBDF82A00401C00B2ADF82A0009F157
:1058F00001001FFA80F9B945BFDB601C04B2AC425D
:1059000091DDBDF81C00401C00B2ADF82000BDF8D0
:105910001E00284400B2ADF82200BDF81800401E59
:1059200000B2ADF82400BDF82200ADF8260000203A
:10593000059019E005981BF80030308A0246049063
:1059400008A81699FCF7FAFDBDF82200401C00B229
:10595000ADF82200BDF82600401C00B2ADF82600CC
:105960000598401C80B205900598B842E2DB19B05A
:10597000BDE8F08F2DE9FF4F99B08046914603F0C6
:10598000D9F80390FCF763FC8246B9F90650B9F9DF
:1059900012704046FCF736FA18904046FCF7FEF9C4
:1059A0001790A8B2DDE91721FCF7A6FD05B205EBBB
:1059B0000A0005B27800401C00B21690E819001DDC
:1059C00020F0030015901598400015901698C01C03
:1059D00020F003001490149880001490E819001D22
:1059E00020F00300139013981390DDE914210A446A
:1059F00013995018FCF704FE1290129E129E1598EF
:105A000030441190DDE914100844129E3044109087
:105A100030461599FAF720FD2A460EA90FA8FCF783
:105A2000BDFA0FE0BDF83C00BDF93E1026F81100AC
:105A3000BDF83E00BDF93C1026F811000EA90FA8D4
:105A4000FCF7B4FA0FA8FCF79EFA0028EAD11C98DC
:105A5000FF2802D199F8080004E099F808001C9981
:105A6000484300120D9000240EE01698001B0D997B
:105A700049004843010216984043B1FBF0F11198E8
:105A800040F82410601C04B216988442EDDBB8F88C
:105A90000400401BA0EB0A0000B2ADF82000B8F8EB
:105AA0000600401BA0EB0A0000B2ADF82200B8F8D7
:105AB0000400401BA0EB0A0000B2ADF81C00B8F8CF
:105AC00002002844504400B2ADF81E00B8F80000AF
:105AD0002844504400B2ADF81800B8F80600401B46
